{
  "_format": "hh-sol-artifact-1",
  "contractName": "Domains",
  "sourceName": "contracts/Domain.sol",
  "abi": [
    {
      "inputs": [
        {
          "internalType": "string",
          "name": "_tld",
          "type": "string"
        }
      ],
      "stateMutability": "payable",
      "type": "constructor"
    },
    {
      "anonymous": false,
      "inputs": [
        {
          "indexed": true,
          "internalType": "address",
          "name": "owner",
          "type": "address"
        },
        {
          "indexed": true,
          "internalType": "address",
          "name": "approved",
          "type": "address"
        },
        {
          "indexed": true,
          "internalType": "uint256",
          "name": "tokenId",
          "type": "uint256"
        }
      ],
      "name": "Approval",
      "type": "event"
    },
    {
      "anonymous": false,
      "inputs": [
        {
          "indexed": true,
          "internalType": "address",
          "name": "owner",
          "type": "address"
        },
        {
          "indexed": true,
          "internalType": "address",
          "name": "operator",
          "type": "address"
        },
        {
          "indexed": false,
          "internalType": "bool",
          "name": "approved",
          "type": "bool"
        }
      ],
      "name": "ApprovalForAll",
      "type": "event"
    },
    {
      "anonymous": false,
      "inputs": [
        {
          "indexed": true,
          "internalType": "address",
          "name": "from",
          "type": "address"
        },
        {
          "indexed": true,
          "internalType": "address",
          "name": "to",
          "type": "address"
        },
        {
          "indexed": true,
          "internalType": "uint256",
          "name": "tokenId",
          "type": "uint256"
        }
      ],
      "name": "Transfer",
      "type": "event"
    },
    {
      "inputs": [
        {
          "internalType": "address",
          "name": "to",
          "type": "address"
        },
        {
          "internalType": "uint256",
          "name": "tokenId",
          "type": "uint256"
        }
      ],
      "name": "approve",
      "outputs": [],
      "stateMutability": "nonpayable",
      "type": "function"
    },
    {
      "inputs": [
        {
          "internalType": "address",
          "name": "owner",
          "type": "address"
        }
      ],
      "name": "balanceOf",
      "outputs": [
        {
          "internalType": "uint256",
          "name": "",
          "type": "uint256"
        }
      ],
      "stateMutability": "view",
      "type": "function"
    },
    {
      "inputs": [
        {
          "internalType": "string",
          "name": "",
          "type": "string"
        }
      ],
      "name": "domains",
      "outputs": [
        {
          "internalType": "address",
          "name": "",
          "type": "address"
        }
      ],
      "stateMutability": "view",
      "type": "function"
    },
    {
      "inputs": [
        {
          "internalType": "string",
          "name": "name",
          "type": "string"
        }
      ],
      "name": "getAddress",
      "outputs": [
        {
          "internalType": "address",
          "name": "",
          "type": "address"
        }
      ],
      "stateMutability": "view",
      "type": "function"
    },
    {
      "inputs": [
        {
          "internalType": "uint256",
          "name": "tokenId",
          "type": "uint256"
        }
      ],
      "name": "getApproved",
      "outputs": [
        {
          "internalType": "address",
          "name": "",
          "type": "address"
        }
      ],
      "stateMutability": "view",
      "type": "function"
    },
    {
      "inputs": [
        {
          "internalType": "string",
          "name": "name",
          "type": "string"
        }
      ],
      "name": "getRecord",
      "outputs": [
        {
          "internalType": "string",
          "name": "",
          "type": "string"
        }
      ],
      "stateMutability": "view",
      "type": "function"
    },
    {
      "inputs": [
        {
          "internalType": "address",
          "name": "owner",
          "type": "address"
        },
        {
          "internalType": "address",
          "name": "operator",
          "type": "address"
        }
      ],
      "name": "isApprovedForAll",
      "outputs": [
        {
          "internalType": "bool",
          "name": "",
          "type": "bool"
        }
      ],
      "stateMutability": "view",
      "type": "function"
    },
    {
      "inputs": [],
      "name": "name",
      "outputs": [
        {
          "internalType": "string",
          "name": "",
          "type": "string"
        }
      ],
      "stateMutability": "view",
      "type": "function"
    },
    {
      "inputs": [
        {
          "internalType": "uint256",
          "name": "tokenId",
          "type": "uint256"
        }
      ],
      "name": "ownerOf",
      "outputs": [
        {
          "internalType": "address",
          "name": "",
          "type": "address"
        }
      ],
      "stateMutability": "view",
      "type": "function"
    },
    {
      "inputs": [
        {
          "internalType": "string",
          "name": "name",
          "type": "string"
        }
      ],
      "name": "price",
      "outputs": [
        {
          "internalType": "uint256",
          "name": "",
          "type": "uint256"
        }
      ],
      "stateMutability": "pure",
      "type": "function"
    },
    {
      "inputs": [
        {
          "internalType": "string",
          "name": "",
          "type": "string"
        }
      ],
      "name": "records",
      "outputs": [
        {
          "internalType": "string",
          "name": "",
          "type": "string"
        }
      ],
      "stateMutability": "view",
      "type": "function"
    },
    {
      "inputs": [
        {
          "internalType": "string",
          "name": "name",
          "type": "string"
        }
      ],
      "name": "register",
      "outputs": [],
      "stateMutability": "payable",
      "type": "function"
    },
    {
      "inputs": [
        {
          "internalType": "address",
          "name": "from",
          "type": "address"
        },
        {
          "internalType": "address",
          "name": "to",
          "type": "address"
        },
        {
          "internalType": "uint256",
          "name": "tokenId",
          "type": "uint256"
        }
      ],
      "name": "safeTransferFrom",
      "outputs": [],
      "stateMutability": "nonpayable",
      "type": "function"
    },
    {
      "inputs": [
        {
          "internalType": "address",
          "name": "from",
          "type": "address"
        },
        {
          "internalType": "address",
          "name": "to",
          "type": "address"
        },
        {
          "internalType": "uint256",
          "name": "tokenId",
          "type": "uint256"
        },
        {
          "internalType": "bytes",
          "name": "_data",
          "type": "bytes"
        }
      ],
      "name": "safeTransferFrom",
      "outputs": [],
      "stateMutability": "nonpayable",
      "type": "function"
    },
    {
      "inputs": [
        {
          "internalType": "address",
          "name": "operator",
          "type": "address"
        },
        {
          "internalType": "bool",
          "name": "approved",
          "type": "bool"
        }
      ],
      "name": "setApprovalForAll",
      "outputs": [],
      "stateMutability": "nonpayable",
      "type": "function"
    },
    {
      "inputs": [
        {
          "internalType": "string",
          "name": "name",
          "type": "string"
        },
        {
          "internalType": "string",
          "name": "record",
          "type": "string"
        }
      ],
      "name": "setRecord",
      "outputs": [],
      "stateMutability": "nonpayable",
      "type": "function"
    },
    {
      "inputs": [
        {
          "internalType": "bytes4",
          "name": "interfaceId",
          "type": "bytes4"
        }
      ],
      "name": "supportsInterface",
      "outputs": [
        {
          "internalType": "bool",
          "name": "",
          "type": "bool"
        }
      ],
      "stateMutability": "view",
      "type": "function"
    },
    {
      "inputs": [],
      "name": "symbol",
      "outputs": [
        {
          "internalType": "string",
          "name": "",
          "type": "string"
        }
      ],
      "stateMutability": "view",
      "type": "function"
    },
    {
      "inputs": [],
      "name": "tld",
      "outputs": [
        {
          "internalType": "string",
          "name": "",
          "type": "string"
        }
      ],
      "stateMutability": "view",
      "type": "function"
    },
    {
      "inputs": [
        {
          "internalType": "uint256",
          "name": "tokenId",
          "type": "uint256"
        }
      ],
      "name": "tokenURI",
      "outputs": [
        {
          "internalType": "string",
          "name": "",
          "type": "string"
        }
      ],
      "stateMutability": "view",
      "type": "function"
    },
    {
      "inputs": [
        {
          "internalType": "address",
          "name": "from",
          "type": "address"
        },
        {
          "internalType": "address",
          "name": "to",
          "type": "address"
        },
        {
          "internalType": "uint256",
          "name": "tokenId",
          "type": "uint256"
        }
      ],
      "name": "transferFrom",
      "outputs": [],
      "stateMutability": "nonpayable",
      "type": "function"
    }
  ],
  "bytecode": "0x6080604052604051806108a0016040528061086b81526020016200499f61086b9139600990805190602001906200003892919062000287565b506040518060400160405280600d81526020017f3c2f746578743e3c2f7376673e00000000000000000000000000000000000000815250600a90805190602001906200008692919062000287565b506040516200520a3803806200520a8339818101604052810190620000ac9190620003a9565b6040518060400160405280601281526020017f4e696e6a61204e616d65205365727669636500000000000000000000000000008152506040518060400160405280600381526020017f4e4e53000000000000000000000000000000000000000000000000000000000081525081600090805190602001906200013092919062000287565b5080600190805190602001906200014992919062000287565b50505080600890805190602001906200016492919062000287565b50620001b16040518060400160405280601881526020017f2573206e616d652073657276696365206465706c6f796564000000000000000081525082620001b860201b620014d31760201c565b50620005f6565b6200025a8282604051602401620001d19291906200042f565b6040516020818303038152906040527f4b5c4277000000000000000000000000000000000000000000000000000000007bffffffffffffffffffffffffffffffffffffffffffffffffffffffff19166020820180517bffffffffffffffffffffffffffffffffffffffffffffffffffffffff83818316178352505050506200025e60201b60201c565b5050565b60008151905060006a636f6e736f6c652e6c6f679050602083016000808483855afa5050505050565b82805462000295906200051b565b90600052602060002090601f016020900481019282620002b9576000855562000305565b82601f10620002d457805160ff191683800117855562000305565b8280016001018555821562000305579182015b8281111562000304578251825591602001919060010190620002e7565b5b50905062000314919062000318565b5090565b5b808211156200033357600081600090555060010162000319565b5090565b60006200034e620003488462000493565b6200046a565b9050828152602081018484840111156200036757600080fd5b62000374848285620004e5565b509392505050565b600082601f8301126200038e57600080fd5b8151620003a084826020860162000337565b91505092915050565b600060208284031215620003bc57600080fd5b600082015167ffffffffffffffff811115620003d757600080fd5b620003e5848285016200037c565b91505092915050565b6000620003fb82620004c9565b620004078185620004d4565b935062000419818560208601620004e5565b6200042481620005e5565b840191505092915050565b600060408201905081810360008301526200044b8185620003ee565b90508181036020830152620004618184620003ee565b90509392505050565b60006200047662000489565b905062000484828262000551565b919050565b6000604051905090565b600067ffffffffffffffff821115620004b157620004b0620005b6565b5b620004bc82620005e5565b9050602081019050919050565b600081519050919050565b600082825260208201905092915050565b60005b8381101562000505578082015181840152602081019050620004e8565b8381111562000515576000848401525b50505050565b600060028204905060018216806200053457607f821691505b602082108114156200054b576200054a62000587565b5b50919050565b6200055c82620005e5565b810181811067ffffffffffffffff821117156200057e576200057d620005b6565b5b80604052505050565b7f4e487b7100000000000000000000000000000000000000000000000000000000600052602260045260246000fd5b7f4e487b7100000000000000000000000000000000000000000000000000000000600052604160045260246000fd5b6000601f19601f8301169050919050565b61439980620006066000396000f3fe60806040526004361061012a5760003560e01c80636352211e116100ab578063bf40fac11161006f578063bf40fac114610428578063c1880a9814610465578063c87b56dd1461048e578063e985e9c5146104cb578063f2c298be14610508578063fe2c6198146105245761012a565b80636352211e1461033157806370a082311461036e57806395d89b41146103ab578063a22cb465146103d6578063b88d4fde146103ff5761012a565b806323b872dd116100f257806323b872dd1461023a57806326449235146102635780632d551432146102a057806342842e0e146102cb578063541e771d146102f45761012a565b806301ffc9a71461012f57806306fdde031461016c578063081812fc14610197578063095ea7b3146101d457806311dd8845146101fd575b600080fd5b34801561013b57600080fd5b5061015660048036038101906101519190612d1a565b610561565b60405161016391906134ae565b60405180910390f35b34801561017857600080fd5b50610181610643565b60405161018e91906134c9565b60405180910390f35b3480156101a357600080fd5b506101be60048036038101906101b99190612e67565b6106d5565b6040516101cb9190613447565b60405180910390f35b3480156101e057600080fd5b506101fb60048036038101906101f69190612cde565b61075a565b005b34801561020957600080fd5b50610224600480360381019061021f9190612d6c565b610872565b60405161023191906134c9565b60405180910390f35b34801561024657600080fd5b50610261600480360381019061025c9190612bd8565b610925565b005b34801561026f57600080fd5b5061028a60048036038101906102859190612e26565b610985565b6040516102979190613447565b60405180910390f35b3480156102ac57600080fd5b506102b56109ce565b6040516102c291906134c9565b60405180910390f35b3480156102d757600080fd5b506102f260048036038101906102ed9190612bd8565b610a5c565b005b34801561030057600080fd5b5061031b60048036038101906103169190612e26565b610a7c565b60405161032891906134c9565b60405180910390f35b34801561033d57600080fd5b5061035860048036038101906103539190612e67565b610b32565b6040516103659190613447565b60405180910390f35b34801561037a57600080fd5b5061039560048036038101906103909190612b73565b610be4565b6040516103a291906137cc565b60405180910390f35b3480156103b757600080fd5b506103c0610c9c565b6040516103cd91906134c9565b60405180910390f35b3480156103e257600080fd5b506103fd60048036038101906103f89190612ca2565b610d2e565b005b34801561040b57600080fd5b5061042660048036038101906104219190612c27565b610d44565b005b34801561043457600080fd5b5061044f600480360381019061044a9190612d6c565b610da6565b60405161045c9190613447565b60405180910390f35b34801561047157600080fd5b5061048c60048036038101906104879190612db1565b610df1565b005b34801561049a57600080fd5b506104b560048036038101906104b09190612e67565b610e27565b6040516104c291906134c9565b60405180910390f35b3480156104d757600080fd5b506104f260048036038101906104ed9190612b9c565b610f79565b6040516104ff91906134ae565b60405180910390f35b610522600480360381019061051d9190612d6c565b61100d565b005b34801561053057600080fd5b5061054b60048036038101906105469190612d6c565b61142d565b60405161055891906137cc565b60405180910390f35b60007f80ac58cd000000000000000000000000000000000000000000000000000000007bffffffffffffffffffffffffffffffffffffffffffffffffffffffff1916827bffffffffffffffffffffffffffffffffffffffffffffffffffffffff1916148061062c57507f5b5e139f000000000000000000000000000000000000000000000000000000007bffffffffffffffffffffffffffffffffffffffffffffffffffffffff1916827bffffffffffffffffffffffffffffffffffffffffffffffffffffffff1916145b8061063c575061063b8261156f565b5b9050919050565b60606000805461065290613a91565b80601f016020809104026020016040519081016040528092919081815260200182805461067e90613a91565b80156106cb5780601f106106a0576101008083540402835291602001916106cb565b820191906000526020600020905b8154815290600101906020018083116106ae57829003601f168201915b5050505050905090565b60006106e0826115d9565b61071f576040517f08c379a00000000000000000000000000000000000000000000000000000000081526004016107169061372c565b60405180910390fd5b6004600083815260200190815260200160002060009054906101000a900473ffffffffffffffffffffffffffffffffffffffff169050919050565b600061076582610b32565b90508073ffffffffffffffffffffffffffffffffffffffff168373ffffffffffffffffffffffffffffffffffffffff1614156107d6576040517f08c379a00000000000000000000000000000000000000000000000000000000081526004016107cd9061378c565b60405180910390fd5b8073ffffffffffffffffffffffffffffffffffffffff166107f5611645565b73ffffffffffffffffffffffffffffffffffffffff16148061082457506108238161081e611645565b610f79565b5b610863576040517f08c379a000000000000000000000000000000000000000000000000000000000815260040161085a9061366c565b60405180910390fd5b61086d838361164d565b505050565b6060600c8383604051610886929190613329565b9081526020016040518091039020805461089f90613a91565b80601f01602080910402602001604051908101604052809291908181526020018280546108cb90613a91565b80156109185780601f106108ed57610100808354040283529160200191610918565b820191906000526020600020905b8154815290600101906020018083116108fb57829003601f168201915b5050505050905092915050565b610936610930611645565b82611706565b610975576040517f08c379a000000000000000000000000000000000000000000000000000000000815260040161096c906137ac565b60405180910390fd5b6109808383836117e4565b505050565b600b818051602081018201805184825260208301602085012081835280955050505050506000915054906101000a900473ffffffffffffffffffffffffffffffffffffffff1681565b600880546109db90613a91565b80601f0160208091040260200160405190810160405280929190818152602001828054610a0790613a91565b8015610a545780601f10610a2957610100808354040283529160200191610a54565b820191906000526020600020905b815481529060010190602001808311610a3757829003601f168201915b505050505081565b610a7783838360405180602001604052806000815250610d44565b505050565b600c818051602081018201805184825260208301602085012081835280955050505050506000915090508054610ab190613a91565b80601f0160208091040260200160405190810160405280929190818152602001828054610add90613a91565b8015610b2a5780601f10610aff57610100808354040283529160200191610b2a565b820191906000526020600020905b815481529060010190602001808311610b0d57829003601f168201915b505050505081565b6000806002600084815260200190815260200160002060009054906101000a900473ffffffffffffffffffffffffffffffffffffffff169050600073ffffffffffffffffffffffffffffffffffffffff168173ffffffffffffffffffffffffffffffffffffffff161415610bdb576040517f08c379a0000000000000000000000000000000000000000000000000000000008152600401610bd2906136ac565b60405180910390fd5b80915050919050565b60008073ffffffffffffffffffffffffffffffffffffffff168273ffffffffffffffffffffffffffffffffffffffff161415610c55576040517f08c379a0000000000000000000000000000000000000000000000000000000008152600401610c4c9061368c565b60405180910390fd5b600360008373ffffffffffffffffffffffffffffffffffffffff1673ffffffffffffffffffffffffffffffffffffffff168152602001908152602001600020549050919050565b606060018054610cab90613a91565b80601f0160208091040260200160405190810160405280929190818152602001828054610cd790613a91565b8015610d245780601f10610cf957610100808354040283529160200191610d24565b820191906000526020600020905b815481529060010190602001808311610d0757829003601f168201915b5050505050905090565b610d40610d39611645565b8383611a4b565b5050565b610d55610d4f611645565b83611706565b610d94576040517f08c379a0000000000000000000000000000000000000000000000000000000008152600401610d8b906137ac565b60405180910390fd5b610da084848484611bb8565b50505050565b6000600b8383604051610dba929190613329565b908152602001604051809103902060009054906101000a900473ffffffffffffffffffffffffffffffffffffffff16905092915050565b8181600c8686604051610e05929190613329565b90815260200160405180910390209190610e209291906128c7565b5050505050565b6060610e32826115d9565b610e71576040517f08c379a0000000000000000000000000000000000000000000000000000000008152600401610e689061370c565b60405180910390fd5b6000600660008481526020019081526020016000208054610e9190613a91565b80601f0160208091040260200160405190810160405280929190818152602001828054610ebd90613a91565b8015610f0a5780601f10610edf57610100808354040283529160200191610f0a565b820191906000526020600020905b815481529060010190602001808311610eed57829003601f168201915b505050505090506000610f1b611c14565b9050600081511415610f31578192505050610f74565b600082511115610f66578082604051602001610f4e929190613373565b60405160208183030381529060405292505050610f74565b610f6f84611c2b565b925050505b919050565b6000600560008473ffffffffffffffffffffffffffffffffffffffff1673ffffffffffffffffffffffffffffffffffffffff16815260200190815260200160002060008373ffffffffffffffffffffffffffffffffffffffff1673ffffffffffffffffffffffffffffffffffffffff16815260200190815260200160002060009054906101000a900460ff16905092915050565b600073ffffffffffffffffffffffffffffffffffffffff16600b8383604051611037929190613329565b908152602001604051809103902060009054906101000a900473ffffffffffffffffffffffffffffffffffffffff1673ffffffffffffffffffffffffffffffffffffffff161461108657600080fd5b6000611092838361142d565b9050803410156110d7576040517f08c379a00000000000000000000000000000000000000000000000000000000081526004016110ce9061376c565b60405180910390fd5b6000838360086040516020016110ef93929190613342565b60405160208183030381529060405290506000600982600a60405160200161111993929190613397565b604051602081830303815290604052905060006111366007611cd2565b9050600061118787878080601f016020809104026020016040519081016040528093929190818152602001838380828437600081840152601f19601f82011690508083019250505050505050611ce0565b9050600061119482611ebb565b90506112886040518060600160405280603181526020016142ba6031913989898080601f016020809104026020016040519081016040528093929190818152602001838380828437600081840152601f19601f820116905080830192505050505050506008805461120490613a91565b80601f016020809104026020016040519081016040528092919081815260200182805461123090613a91565b801561127d5780601f106112525761010080835404028352916020019161127d565b820191906000526020600020905b81548152906001019060200180831161126057829003601f168201915b505050505086612068565b60006112be866112978761210a565b846040516020016112aa939291906133c8565b60405160208183030381529060405261210a565b90506000816040516020016112d39190613425565b6040516020818303038152906040529050611305604051806060016040528060398152602001614281603991396122c8565b6113446040518060400160405280600e81526020017f46696e616c20746f6b656e555249000000000000000000000000000000000000815250826114d3565b6113656040518060600160405280603981526020016142eb603991396122c8565b61136f3386612361565b611379858261237f565b33600b8b8b60405161138c929190613329565b908152602001604051809103902060006101000a81548173ffffffffffffffffffffffffffffffffffffffff021916908373ffffffffffffffffffffffffffffffffffffffff1602179055506114176040518060400160405280601b81526020017f2573206861732072656769737465726564206120646f6d61696e210000000000815250336123f3565b611421600761248f565b50505050505050505050565b60008061147d84848080601f016020809104026020016040519081016040528093929190818152602001838380828437600081840152601f19601f82011690508083019250505050505050611ce0565b90506000811161148c57600080fd5b60038114156114a6576706f05b59d3b200009150506114cd565b60048114156114c057670429d069189e00009150506114cd565b67016345785d8a00009150505b92915050565b61156b82826040516024016114e992919061351b565b6040516020818303038152906040527f4b5c4277000000000000000000000000000000000000000000000000000000007bffffffffffffffffffffffffffffffffffffffffffffffffffffffff19166020820180517bffffffffffffffffffffffffffffffffffffffffffffffffffffffff83818316178352505050506124a5565b5050565b60007f01ffc9a7000000000000000000000000000000000000000000000000000000007bffffffffffffffffffffffffffffffffffffffffffffffffffffffff1916827bffffffffffffffffffffffffffffffffffffffffffffffffffffffff1916149050919050565b60008073ffffffffffffffffffffffffffffffffffffffff166002600084815260200190815260200160002060009054906101000a900473ffffffffffffffffffffffffffffffffffffffff1673ffffffffffffffffffffffffffffffffffffffff1614159050919050565b600033905090565b816004600083815260200190815260200160002060006101000a81548173ffffffffffffffffffffffffffffffffffffffff021916908373ffffffffffffffffffffffffffffffffffffffff160217905550808273ffffffffffffffffffffffffffffffffffffffff166116c083610b32565b73ffffffffffffffffffffffffffffffffffffffff167f8c5be1e5ebec7d5bd14f71427d1e84f3dd0314c0f7b2291e5b200ac8c7c3b92560405160405180910390a45050565b6000611711826115d9565b611750576040517f08c379a00000000000000000000000000000000000000000000000000000000081526004016117479061364c565b60405180910390fd5b600061175b83610b32565b90508073ffffffffffffffffffffffffffffffffffffffff168473ffffffffffffffffffffffffffffffffffffffff16148061179d575061179c8185610f79565b5b806117db57508373ffffffffffffffffffffffffffffffffffffffff166117c3846106d5565b73ffffffffffffffffffffffffffffffffffffffff16145b91505092915050565b8273ffffffffffffffffffffffffffffffffffffffff1661180482610b32565b73ffffffffffffffffffffffffffffffffffffffff161461185a576040517f08c379a0000000000000000000000000000000000000000000000000000000008152600401611851906135cc565b60405180910390fd5b600073ffffffffffffffffffffffffffffffffffffffff168273ffffffffffffffffffffffffffffffffffffffff1614156118ca576040517f08c379a00000000000000000000000000000000000000000000000000000000081526004016118c19061360c565b60405180910390fd5b6118d58383836124ce565b6118e060008261164d565b6001600360008573ffffffffffffffffffffffffffffffffffffffff1673ffffffffffffffffffffffffffffffffffffffff168152602001908152602001600020600082825461193091906139a7565b925050819055506001600360008473ffffffffffffffffffffffffffffffffffffffff1673ffffffffffffffffffffffffffffffffffffffff168152602001908152602001600020600082825461198791906138c6565b92505081905550816002600083815260200190815260200160002060006101000a81548173ffffffffffffffffffffffffffffffffffffffff021916908373ffffffffffffffffffffffffffffffffffffffff160217905550808273ffffffffffffffffffffffffffffffffffffffff168473ffffffffffffffffffffffffffffffffffffffff167fddf252ad1be2c89b69c2b068fc378daa952ba7f163c4a11628f55a4df523b3ef60405160405180910390a4611a468383836124d3565b505050565b8173ffffffffffffffffffffffffffffffffffffffff168373ffffffffffffffffffffffffffffffffffffffff161415611aba576040517f08c379a0000000000000000000000000000000000000000000000000000000008152600401611ab19061362c565b60405180910390fd5b80600560008573ffffffffffffffffffffffffffffffffffffffff1673ffffffffffffffffffffffffffffffffffffffff16815260200190815260200160002060008473ffffffffffffffffffffffffffffffffffffffff1673ffffffffffffffffffffffffffffffffffffffff16815260200190815260200160002060006101000a81548160ff0219169083151502179055508173ffffffffffffffffffffffffffffffffffffffff168373ffffffffffffffffffffffffffffffffffffffff167f17307eab39ab6107e8899845ad3d59bd9653f200f220920489ca2b5937696c3183604051611bab91906134ae565b60405180910390a3505050565b611bc38484846117e4565b611bcf848484846124d8565b611c0e576040517f08c379a0000000000000000000000000000000000000000000000000000000008152600401611c05906135ac565b60405180910390fd5b50505050565b606060405180602001604052806000815250905090565b6060611c36826115d9565b611c75576040517f08c379a0000000000000000000000000000000000000000000000000000000008152600401611c6c9061374c565b60405180910390fd5b6000611c7f611c14565b90506000815111611c9f5760405180602001604052806000815250611cca565b80611ca984611ebb565b604051602001611cba929190613373565b6040516020818303038152906040525b915050919050565b600081600001549050919050565b60008060008084519050600092505b80821015611eb0576000858381518110611d32577f4e487b7100000000000000000000000000000000000000000000000000000000600052603260045260246000fd5b602001015160f81c60f81b9050608060f81b817effffffffffffffffffffffffffffffffffffffffffffffffffffffffffffff19161015611d8157600183611d7a91906138c6565b9250611e9c565b60e060f81b817effffffffffffffffffffffffffffffffffffffffffffffffffffffffffffff19161015611dc357600283611dbc91906138c6565b9250611e9b565b60f060f81b817effffffffffffffffffffffffffffffffffffffffffffffffffffffffffffff19161015611e0557600383611dfe91906138c6565b9250611e9a565b60f8801b817effffffffffffffffffffffffffffffffffffffffffffffffffffffffffffff19161015611e4657600483611e3f91906138c6565b9250611e99565b60fc60f81b817effffffffffffffffffffffffffffffffffffffffffffffffffffffffffffff19161015611e8857600583611e8191906138c6565b9250611e98565b600683611e9591906138c6565b92505b5b5b5b5b508280611ea890613af4565b935050611cef565b829350505050919050565b60606000821415611f03576040518060400160405280600181526020017f30000000000000000000000000000000000000000000000000000000000000008152509050612063565b600082905060005b60008214611f35578080611f1e90613af4565b915050600a82611f2e919061391c565b9150611f0b565b60008167ffffffffffffffff811115611f77577f4e487b7100000000000000000000000000000000000000000000000000000000600052604160045260246000fd5b6040519080825280601f01601f191660200182016040528015611fa95781602001600182028036833780820191505090505b5090505b6000851461205c57600182611fc291906139a7565b9150600a85611fd19190613b3d565b6030611fdd91906138c6565b60f81b818381518110612019577f4e487b7100000000000000000000000000000000000000000000000000000000600052603260045260246000fd5b60200101907effffffffffffffffffffffffffffffffffffffffffffffffffffffffffffff1916908160001a905350600a85612055919061391c565b9450611fad565b8093505050505b919050565b612104848484846040516024016120829493929190613552565b6040516020818303038152906040527f9fd009f5000000000000000000000000000000000000000000000000000000007bffffffffffffffffffffffffffffffffffffffffffffffffffffffff19166020820180517bffffffffffffffffffffffffffffffffffffffffffffffffffffffff83818316178352505050506124a5565b50505050565b6060600082519050600081141561213357604051806020016040528060008152509150506122c3565b6000600360028361214491906138c6565b61214e919061391c565b600461215a919061394d565b9050600060208261216b91906138c6565b67ffffffffffffffff8111156121aa577f4e487b7100000000000000000000000000000000000000000000000000000000600052604160045260246000fd5b6040519080825280601f01601f1916602001820160405280156121dc5781602001600182028036833780820191505090505b5090506000604051806060016040528060408152602001614324604091399050600181016020830160005b868110156122805760038101905062ffffff818a015116603f8160121c168401518060081b905060ff603f83600c1c1686015116810190508060081b905060ff603f8360061c1686015116810190508060081b905060ff603f831686015116810190508060e01b90508084526004840193505050612207565b50600386066001811461229a57600281146122aa576122b5565b613d3d60f01b60028303526122b5565b603d60f81b60018303525b508484525050819450505050505b919050565b61235e816040516024016122dc91906134c9565b6040516020818303038152906040527f41304fac000000000000000000000000000000000000000000000000000000007bffffffffffffffffffffffffffffffffffffffffffffffffffffffff19166020820180517bffffffffffffffffffffffffffffffffffffffffffffffffffffffff83818316178352505050506124a5565b50565b61237b82826040518060200160405280600081525061266f565b5050565b612388826115d9565b6123c7576040517f08c379a00000000000000000000000000000000000000000000000000000000081526004016123be906136cc565b60405180910390fd5b806006600084815260200190815260200160002090805190602001906123ee92919061294d565b505050565b61248b82826040516024016124099291906134eb565b6040516020818303038152906040527f319af333000000000000000000000000000000000000000000000000000000007bffffffffffffffffffffffffffffffffffffffffffffffffffffffff19166020820180517bffffffffffffffffffffffffffffffffffffffffffffffffffffffff83818316178352505050506124a5565b5050565b6001816000016000828254019250508190555050565b60008151905060006a636f6e736f6c652e6c6f679050602083016000808483855afa5050505050565b505050565b505050565b60006124f98473ffffffffffffffffffffffffffffffffffffffff166126ca565b15612662578373ffffffffffffffffffffffffffffffffffffffff1663150b7a02612522611645565b8786866040518563ffffffff1660e01b81526004016125449493929190613462565b602060405180830381600087803b15801561255e57600080fd5b505af192505050801561258f57506040513d601f19601f8201168201806040525081019061258c9190612d43565b60015b612612573d80600081146125bf576040519150601f19603f3d011682016040523d82523d6000602084013e6125c4565b606091505b5060008151141561260a576040517f08c379a0000000000000000000000000000000000000000000000000000000008152600401612601906135ac565b60405180910390fd5b805181602001fd5b63150b7a0260e01b7bffffffffffffffffffffffffffffffffffffffffffffffffffffffff1916817bffffffffffffffffffffffffffffffffffffffffffffffffffffffff191614915050612667565b600190505b949350505050565b61267983836126ed565b61268660008484846124d8565b6126c5576040517f08c379a00000000000000000000000000000000000000000000000000000000081526004016126bc906135ac565b60405180910390fd5b505050565b6000808273ffffffffffffffffffffffffffffffffffffffff163b119050919050565b600073ffffffffffffffffffffffffffffffffffffffff168273ffffffffffffffffffffffffffffffffffffffff16141561275d576040517f08c379a0000000000000000000000000000000000000000000000000000000008152600401612754906136ec565b60405180910390fd5b612766816115d9565b156127a6576040517f08c379a000000000000000000000000000000000000000000000000000000000815260040161279d906135ec565b60405180910390fd5b6127b2600083836124ce565b6001600360008473ffffffffffffffffffffffffffffffffffffffff1673ffffffffffffffffffffffffffffffffffffffff168152602001908152602001600020600082825461280291906138c6565b92505081905550816002600083815260200190815260200160002060006101000a81548173ffffffffffffffffffffffffffffffffffffffff021916908373ffffffffffffffffffffffffffffffffffffffff160217905550808273ffffffffffffffffffffffffffffffffffffffff16600073ffffffffffffffffffffffffffffffffffffffff167fddf252ad1be2c89b69c2b068fc378daa952ba7f163c4a11628f55a4df523b3ef60405160405180910390a46128c3600083836124d3565b5050565b8280546128d390613a91565b90600052602060002090601f0160209004810192826128f5576000855561293c565b82601f1061290e57803560ff191683800117855561293c565b8280016001018555821561293c579182015b8281111561293b578235825591602001919060010190612920565b5b50905061294991906129d3565b5090565b82805461295990613a91565b90600052602060002090601f01602090048101928261297b57600085556129c2565b82601f1061299457805160ff19168380011785556129c2565b828001600101855582156129c2579182015b828111156129c15782518255916020019190600101906129a6565b5b5090506129cf91906129d3565b5090565b5b808211156129ec5760008160009055506001016129d4565b5090565b6000612a036129fe8461380c565b6137e7565b905082815260208101848484011115612a1b57600080fd5b612a26848285613a4f565b509392505050565b6000612a41612a3c8461383d565b6137e7565b905082815260208101848484011115612a5957600080fd5b612a64848285613a4f565b509392505050565b600081359050612a7b81614224565b92915050565b600081359050612a908161423b565b92915050565b600081359050612aa581614252565b92915050565b600081519050612aba81614252565b92915050565b600082601f830112612ad157600080fd5b8135612ae18482602086016129f0565b91505092915050565b60008083601f840112612afc57600080fd5b8235905067ffffffffffffffff811115612b1557600080fd5b602083019150836001820283011115612b2d57600080fd5b9250929050565b600082601f830112612b4557600080fd5b8135612b55848260208601612a2e565b91505092915050565b600081359050612b6d81614269565b92915050565b600060208284031215612b8557600080fd5b6000612b9384828501612a6c565b91505092915050565b60008060408385031215612baf57600080fd5b6000612bbd85828601612a6c565b9250506020612bce85828601612a6c565b9150509250929050565b600080600060608486031215612bed57600080fd5b6000612bfb86828701612a6c565b9350506020612c0c86828701612a6c565b9250506040612c1d86828701612b5e565b9150509250925092565b60008060008060808587031215612c3d57600080fd5b6000612c4b87828801612a6c565b9450506020612c5c87828801612a6c565b9350506040612c6d87828801612b5e565b925050606085013567ffffffffffffffff811115612c8a57600080fd5b612c9687828801612ac0565b91505092959194509250565b60008060408385031215612cb557600080fd5b6000612cc385828601612a6c565b9250506020612cd485828601612a81565b9150509250929050565b60008060408385031215612cf157600080fd5b6000612cff85828601612a6c565b9250506020612d1085828601612b5e565b9150509250929050565b600060208284031215612d2c57600080fd5b6000612d3a84828501612a96565b91505092915050565b600060208284031215612d5557600080fd5b6000612d6384828501612aab565b91505092915050565b60008060208385031215612d7f57600080fd5b600083013567ffffffffffffffff811115612d9957600080fd5b612da585828601612aea565b92509250509250929050565b60008060008060408587031215612dc757600080fd5b600085013567ffffffffffffffff811115612de157600080fd5b612ded87828801612aea565b9450945050602085013567ffffffffffffffff811115612e0c57600080fd5b612e1887828801612aea565b925092505092959194509250565b600060208284031215612e3857600080fd5b600082013567ffffffffffffffff811115612e5257600080fd5b612e5e84828501612b34565b91505092915050565b600060208284031215612e7957600080fd5b6000612e8784828501612b5e565b91505092915050565b612e99816139db565b82525050565b612ea8816139ed565b82525050565b6000612eb982613883565b612ec38185613899565b9350612ed3818560208601613a5e565b612edc81613c2a565b840191505092915050565b6000612ef383856138bb565b9350612f00838584613a4f565b82840190509392505050565b6000612f178261388e565b612f2181856138aa565b9350612f31818560208601613a5e565b612f3a81613c2a565b840191505092915050565b6000612f508261388e565b612f5a81856138bb565b9350612f6a818560208601613a5e565b80840191505092915050565b60008154612f8381613a91565b612f8d81866138bb565b94506001821660008114612fa85760018114612fb957612fec565b60ff19831686528186019350612fec565b612fc28561386e565b60005b83811015612fe457815481890152600182019150602081019050612fc5565b838801955050505b50505092915050565b60006130026032836138aa565b915061300d82613c3b565b604082019050919050565b60006130256025836138aa565b915061303082613c8a565b604082019050919050565b6000613048601c836138aa565b915061305382613cd9565b602082019050919050565b600061306b605c836138bb565b915061307682613d02565b605c82019050919050565b600061308e6024836138aa565b915061309982613d77565b604082019050919050565b60006130b16019836138aa565b91506130bc82613dc6565b602082019050919050565b60006130d4602c836138aa565b91506130df82613def565b604082019050919050565b60006130f76038836138aa565b915061310282613e3e565b604082019050919050565b600061311a6001836138bb565b915061312582613e8d565b600182019050919050565b600061313d602a836138aa565b915061314882613eb6565b604082019050919050565b60006131606029836138aa565b915061316b82613f05565b604082019050919050565b6000613183602e836138aa565b915061318e82613f54565b604082019050919050565b60006131a66002836138bb565b91506131b182613fa3565b600282019050919050565b60006131c96020836138aa565b91506131d482613fcc565b602082019050919050565b60006131ec6031836138aa565b91506131f782613ff5565b604082019050919050565b600061320f602c836138aa565b915061321a82614044565b604082019050919050565b6000613232602f836138aa565b915061323d82614093565b604082019050919050565b60006132556015836138aa565b9150613260826140e2565b602082019050919050565b6000613278600a836138bb565b91506132838261410b565b600a82019050919050565b600061329b6021836138aa565b91506132a682614134565b604082019050919050565b60006132be601d836138bb565b91506132c982614183565b601d82019050919050565b60006132e1600c836138bb565b91506132ec826141ac565b600c82019050919050565b60006133046031836138aa565b915061330f826141d5565b604082019050919050565b61332381613a45565b82525050565b6000613336828486612ee7565b91508190509392505050565b600061334f828587612ee7565b915061335a8261310d565b91506133668284612f76565b9150819050949350505050565b600061337f8285612f45565b915061338b8284612f45565b91508190509392505050565b60006133a38286612f76565b91506133af8285612f45565b91506133bb8284612f76565b9150819050949350505050565b60006133d38261326b565b91506133df8286612f45565b91506133ea8261305e565b91506133f68285612f45565b9150613401826132d4565b915061340d8284612f45565b915061341882613199565b9150819050949350505050565b6000613430826132b1565b915061343c8284612f45565b915081905092915050565b600060208201905061345c6000830184612e90565b92915050565b60006080820190506134776000830187612e90565b6134846020830186612e90565b613491604083018561331a565b81810360608301526134a38184612eae565b905095945050505050565b60006020820190506134c36000830184612e9f565b92915050565b600060208201905081810360008301526134e38184612f0c565b905092915050565b600060408201905081810360008301526135058185612f0c565b90506135146020830184612e90565b9392505050565b600060408201905081810360008301526135358185612f0c565b905081810360208301526135498184612f0c565b90509392505050565b6000608082019050818103600083015261356c8187612f0c565b905081810360208301526135808186612f0c565b905081810360408301526135948185612f0c565b90506135a3606083018461331a565b95945050505050565b600060208201905081810360008301526135c581612ff5565b9050919050565b600060208201905081810360008301526135e581613018565b9050919050565b600060208201905081810360008301526136058161303b565b9050919050565b6000602082019050818103600083015261362581613081565b9050919050565b60006020820190508181036000830152613645816130a4565b9050919050565b60006020820190508181036000830152613665816130c7565b9050919050565b60006020820190508181036000830152613685816130ea565b9050919050565b600060208201905081810360008301526136a581613130565b9050919050565b600060208201905081810360008301526136c581613153565b9050919050565b600060208201905081810360008301526136e581613176565b9050919050565b60006020820190508181036000830152613705816131bc565b9050919050565b60006020820190508181036000830152613725816131df565b9050919050565b6000602082019050818103600083015261374581613202565b9050919050565b6000602082019050818103600083015261376581613225565b9050919050565b6000602082019050818103600083015261378581613248565b9050919050565b600060208201905081810360008301526137a58161328e565b9050919050565b600060208201905081810360008301526137c5816132f7565b9050919050565b60006020820190506137e1600083018461331a565b92915050565b60006137f1613802565b90506137fd8282613ac3565b919050565b6000604051905090565b600067ffffffffffffffff82111561382757613826613bfb565b5b61383082613c2a565b9050602081019050919050565b600067ffffffffffffffff82111561385857613857613bfb565b5b61386182613c2a565b9050602081019050919050565b60008190508160005260206000209050919050565b600081519050919050565b600081519050919050565b600082825260208201905092915050565b600082825260208201905092915050565b600081905092915050565b60006138d182613a45565b91506138dc83613a45565b9250827fffffffffffffffffffffffffffffffffffffffffffffffffffffffffffffffff0382111561391157613910613b6e565b5b828201905092915050565b600061392782613a45565b915061393283613a45565b92508261394257613941613b9d565b5b828204905092915050565b600061395882613a45565b915061396383613a45565b9250817fffffffffffffffffffffffffffffffffffffffffffffffffffffffffffffffff048311821515161561399c5761399b613b6e565b5b828202905092915050565b60006139b282613a45565b91506139bd83613a45565b9250828210156139d0576139cf613b6e565b5b828203905092915050565b60006139e682613a25565b9050919050565b60008115159050919050565b60007fffffffff0000000000000000000000000000000000000000000000000000000082169050919050565b600073ffffffffffffffffffffffffffffffffffffffff82169050919050565b6000819050919050565b82818337600083830152505050565b60005b83811015613a7c578082015181840152602081019050613a61565b83811115613a8b576000848401525b50505050565b60006002820490506001821680613aa957607f821691505b60208210811415613abd57613abc613bcc565b5b50919050565b613acc82613c2a565b810181811067ffffffffffffffff82111715613aeb57613aea613bfb565b5b80604052505050565b6000613aff82613a45565b91507fffffffffffffffffffffffffffffffffffffffffffffffffffffffffffffffff821415613b3257613b31613b6e565b5b600182019050919050565b6000613b4882613a45565b9150613b5383613a45565b925082613b6357613b62613b9d565b5b828206905092915050565b7f4e487b7100000000000000000000000000000000000000000000000000000000600052601160045260246000fd5b7f4e487b7100000000000000000000000000000000000000000000000000000000600052601260045260246000fd5b7f4e487b7100000000000000000000000000000000000000000000000000000000600052602260045260246000fd5b7f4e487b7100000000000000000000000000000000000000000000000000000000600052604160045260246000fd5b6000601f19601f8301169050919050565b7f4552433732313a207472616e7366657220746f206e6f6e20455243373231526560008201527f63656976657220696d706c656d656e7465720000000000000000000000000000602082015250565b7f4552433732313a207472616e736665722066726f6d20696e636f72726563742060008201527f6f776e6572000000000000000000000000000000000000000000000000000000602082015250565b7f4552433732313a20746f6b656e20616c7265616479206d696e74656400000000600082015250565b7f222c20226465736372697074696f6e223a20224120646f6d61696e206f6e207460008201527f6865204e696e6a61206e616d652073657276696365222c2022696d616765223a60208201527f2022646174613a696d6167652f7376672b786d6c3b6261736536342c00000000604082015250565b7f4552433732313a207472616e7366657220746f20746865207a65726f2061646460008201527f7265737300000000000000000000000000000000000000000000000000000000602082015250565b7f4552433732313a20617070726f766520746f2063616c6c657200000000000000600082015250565b7f4552433732313a206f70657261746f7220717565727920666f72206e6f6e657860008201527f697374656e7420746f6b656e0000000000000000000000000000000000000000602082015250565b7f4552433732313a20617070726f76652063616c6c6572206973206e6f74206f7760008201527f6e6572206e6f7220617070726f76656420666f7220616c6c0000000000000000602082015250565b7f2e00000000000000000000000000000000000000000000000000000000000000600082015250565b7f4552433732313a2062616c616e636520717565727920666f7220746865207a6560008201527f726f206164647265737300000000000000000000000000000000000000000000602082015250565b7f4552433732313a206f776e657220717565727920666f72206e6f6e657869737460008201527f656e7420746f6b656e0000000000000000000000000000000000000000000000602082015250565b7f45524337323155524953746f726167653a2055524920736574206f66206e6f6e60008201527f6578697374656e7420746f6b656e000000000000000000000000000000000000602082015250565b7f227d000000000000000000000000000000000000000000000000000000000000600082015250565b7f4552433732313a206d696e7420746f20746865207a65726f2061646472657373600082015250565b7f45524337323155524953746f726167653a2055524920717565727920666f722060008201527f6e6f6e6578697374656e7420746f6b656e000000000000000000000000000000602082015250565b7f4552433732313a20617070726f76656420717565727920666f72206e6f6e657860008201527f697374656e7420746f6b656e0000000000000000000000000000000000000000602082015250565b7f4552433732314d657461646174613a2055524920717565727920666f72206e6f60008201527f6e6578697374656e7420746f6b656e0000000000000000000000000000000000602082015250565b7f4e6f7420656e6f756768204d6174696320706169640000000000000000000000600082015250565b7f7b226e616d65223a202200000000000000000000000000000000000000000000600082015250565b7f4552433732313a20617070726f76616c20746f2063757272656e74206f776e6560008201527f7200000000000000000000000000000000000000000000000000000000000000602082015250565b7f646174613a6170706c69636174696f6e2f6a736f6e3b6261736536342c000000600082015250565b7f222c226c656e677468223a220000000000000000000000000000000000000000600082015250565b7f4552433732313a207472616e736665722063616c6c6572206973206e6f74206f60008201527f776e6572206e6f7220617070726f766564000000000000000000000000000000602082015250565b61422d816139db565b811461423857600080fd5b50565b614244816139ed565b811461424f57600080fd5b50565b61425b816139f9565b811461426657600080fd5b50565b61427281613a45565b811461427d57600080fd5b5056fe0a2d2d2d2d2d2d2d2d2d2d2d2d2d2d2d2d2d2d2d2d2d2d2d2d2d2d2d2d2d2d2d2d2d2d2d2d2d2d2d2d2d2d2d2d2d2d2d2d2d2d2d2d2d2d2d2d5265676973746572696e672025732e2573206f6e2074686520636f6e7472616374207769746820746f6b656e49442025642d2d2d2d2d2d2d2d2d2d2d2d2d2d2d2d2d2d2d2d2d2d2d2d2d2d2d2d2d2d2d2d2d2d2d2d2d2d2d2d2d2d2d2d2d2d2d2d2d2d2d2d2d2d2d2d0a4142434445464748494a4b4c4d4e4f505152535455565758595a6162636465666768696a6b6c6d6e6f707172737475767778797a303132333435363738392b2fa2646970667358221220636c12d3d2a892607d20297610290e21b1437a909c87d8cbef181171b980541264736f6c634300080400333c73766720786d6c6e733d22687474703a2f2f7777772e77332e6f72672f323030302f737667222077696474683d2232373022206865696768743d22323730222066696c6c3d226e6f6e65223e3c706174682066696c6c3d2275726c282342292220643d224d302030683237307632373048307a222f3e3c646566733e3c66696c7465722069643d22412220636f6c6f722d696e746572706f6c6174696f6e2d66696c746572733d2273524742222066696c746572556e6974733d227573657253706163654f6e55736522206865696768743d22323730222077696474683d22323730223e3c666544726f70536861646f772064783d2230222064793d22312220737464446576696174696f6e3d22322220666c6f6f642d6f7061636974793d222e323235222077696474683d223230302522206865696768743d2232303025222f3e3c2f66696c7465723e3c2f646566733e3c7061746820643d224d37322e3836332034322e393439632d2e3636382d2e3338372d312e3432362d2e35392d322e3139372d2e3539732d312e3532392e3230342d322e3139372e35396c2d31302e30383120362e3033322d362e383520332e3933342d31302e30383120362e303332632d2e3636382e3338372d312e3432362e35392d322e3139372e3539732d312e3532392d2e3230342d322e3139372d2e35396c2d382e3031332d342e37323161342e353220342e35322030203020312d312e3538392d312e363136632d2e3338342d2e3636352d2e3539342d312e3431382d2e3630382d322e313837762d392e3331632d2e3031332d2e3737352e3138352d312e3533382e3537322d322e32303861342e323520342e323520302030203120312e3632352d312e3539356c372e3838342d342e3539632e3636382d2e33383720312e3432362d2e353920322e3139372d2e353973312e3532392e32303420322e3139372e35396c372e38383420342e353961342e353220342e353220302030203120312e35383920312e363136632e3338342e3636352e35393420312e3431382e36303820322e31383776362e3033326c362e38352d342e303635762d362e303332632e3031332d2e3737352d2e3138352d312e3533382d2e3537322d322e32303861342e323520342e32352030203020302d312e3632352d312e3539354c34312e3435362032342e3539632d2e3636382d2e3338372d312e3432362d2e35392d322e3139372d2e3539732d312e3532392e3230342d322e3139372e35396c2d31342e38363420382e36353561342e323520342e32352030203020302d312e36323520312e353935632d2e3338372e36372d2e35383520312e3433342d2e35373220322e3230387631372e343431632d2e3031332e3737352e31383520312e3533382e35373220322e32303861342e323520342e323520302030203020312e36323520312e3539356c31342e38363420382e363535632e3636382e33383720312e3432362e353920322e3139372e353973312e3532392d2e32303420322e3139372d2e35396c31302e3038312d352e39303120362e38352d342e3036352031302e3038312d352e393031632e3636382d2e33383720312e3432362d2e353920322e3139372d2e353973312e3532392e32303420322e3139372e35396c372e38383420342e353961342e353220342e353220302030203120312e35383920312e363136632e3338342e3636352e35393420312e3431382e36303820322e31383776392e333131632e3031332e3737352d2e31383520312e3533382d2e35373220322e32303861342e323520342e32352030203020312d312e36323520312e3539356c2d372e38383420342e373231632d2e3636382e3338372d312e3432362e35392d322e3139372e3539732d312e3532392d2e3230342d322e3139372d2e35396c2d372e3838342d342e353961342e353220342e35322030203020312d312e3538392d312e363136632d2e3338352d2e3636352d2e3539342d312e3431382d2e3630382d322e313837762d362e3033326c2d362e383520342e30363576362e303332632d2e3031332e3737352e31383520312e3533382e35373220322e32303861342e323520342e323520302030203020312e36323520312e3539356c31342e38363420382e363535632e3636382e33383720312e3432362e353920322e3139372e353973312e3532392d2e32303420322e3139372d2e35396c31342e3836342d382e363535632e3635372d2e33393420312e3230342d2e393520312e3538392d312e363136732e3539342d312e3431382e3630392d322e3138375635352e353338632e3031332d2e3737352d2e3138352d312e3533382d2e3537322d322e32303861342e323520342e32352030203020302d312e3632352d312e3539356c2d31342e3939332d382e3738367a222066696c6c3d2223666666222f3e3c646566733e3c6c696e6561724772616469656e742069643d2242222078313d2230222079313d2230222078323d22323730222079323d2232373022206772616469656e74556e6974733d227573657253706163654f6e557365223e3c73746f702073746f702d636f6c6f723d2223636235656565222f3e3c73746f70206f66667365743d2231222073746f702d636f6c6f723d2223306364376534222073746f702d6f7061636974793d222e3939222f3e3c2f6c696e6561724772616469656e743e3c2f646566733e3c7465787420783d2233322e352220793d223233312220666f6e742d73697a653d223237222066696c6c3d2223666666222066696c7465723d2275726c282341292220666f6e742d66616d696c793d22506c7573204a616b617274612053616e732c44656a6156752053616e732c4e6f746f20436f6c6f7220456d6f6a692c4170706c6520436f6c6f7220456d6f6a692c73616e732d73657269662220666f6e742d7765696768743d22626f6c64223e",
  "linkReferences": {},
  "deployedLinkReferences": {}
}